{
  "_format": "hh3-artifact-1",
  "contractName": "RaffleFactory",
  "sourceName": "contracts/RaffleFactory.sol",
  "abi": [
    {
      "inputs": [
        {
          "internalType": "address",
          "name": "_entropyAddress",
          "type": "address"
        },
        {
          "internalType": "address",
          "name": "_initialOwner",
          "type": "address"
        }
      ],
      "stateMutability": "nonpayable",
      "type": "constructor"
    },
    {
      "anonymous": false,
      "inputs": [
        {
          "indexed": false,
          "internalType": "address",
          "name": "entropyAddress",
          "type": "address"
        }
      ],
      "name": "EntropyConfigUpdated",
      "type": "event"
    },
    {
      "anonymous": false,
      "inputs": [
        {
          "indexed": true,
          "internalType": "address",
          "name": "previousOwner",
          "type": "address"
        },
        {
          "indexed": true,
          "internalType": "address",
          "name": "newOwner",
          "type": "address"
        }
      ],
      "name": "OwnershipTransferred",
      "type": "event"
    },
    {
      "anonymous": false,
      "inputs": [
        {
          "indexed": true,
          "internalType": "address",
          "name": "raffleAddress",
          "type": "address"
        },
        {
          "indexed": false,
          "internalType": "string",
          "name": "projectName",
          "type": "string"
        },
        {
          "indexed": false,
          "internalType": "uint256",
          "name": "projectPercentage",
          "type": "uint256"
        },
        {
          "indexed": true,
          "internalType": "address",
          "name": "creator",
          "type": "address"
        }
      ],
      "name": "RaffleCreated",
      "type": "event"
    },
    {
      "inputs": [],
      "name": "PLATFORM_FEE",
      "outputs": [
        {
          "internalType": "uint256",
          "name": "",
          "type": "uint256"
        }
      ],
      "stateMutability": "view",
      "type": "function"
    },
    {
      "inputs": [
        {
          "internalType": "string",
          "name": "name",
          "type": "string"
        },
        {
          "internalType": "string",
          "name": "description",
          "type": "string"
        },
        {
          "internalType": "uint256",
          "name": "projectPercentage",
          "type": "uint256"
        },
        {
          "internalType": "address",
          "name": "projectAddress",
          "type": "address"
        },
        {
          "internalType": "uint256",
          "name": "raffleDuration",
          "type": "uint256"
        }
      ],
      "name": "createRaffle",
      "outputs": [
        {
          "internalType": "address",
          "name": "",
          "type": "address"
        }
      ],
      "stateMutability": "nonpayable",
      "type": "function"
    },
    {
      "inputs": [],
      "name": "entropyAddress",
      "outputs": [
        {
          "internalType": "address",
          "name": "",
          "type": "address"
        }
      ],
      "stateMutability": "view",
      "type": "function"
    },
    {
      "inputs": [],
      "name": "getAllRaffles",
      "outputs": [
        {
          "internalType": "address[]",
          "name": "",
          "type": "address[]"
        }
      ],
      "stateMutability": "view",
      "type": "function"
    },
    {
      "inputs": [
        {
          "internalType": "uint256",
          "name": "count",
          "type": "uint256"
        }
      ],
      "name": "getLatestRaffles",
      "outputs": [
        {
          "internalType": "address[]",
          "name": "",
          "type": "address[]"
        }
      ],
      "stateMutability": "view",
      "type": "function"
    },
    {
      "inputs": [],
      "name": "getRaffleCount",
      "outputs": [
        {
          "internalType": "uint256",
          "name": "",
          "type": "uint256"
        }
      ],
      "stateMutability": "view",
      "type": "function"
    },
    {
      "inputs": [
        {
          "internalType": "uint256",
          "name": "index",
          "type": "uint256"
        }
      ],
      "name": "getRaffleInfo",
      "outputs": [
        {
          "internalType": "address",
          "name": "raffleAddress",
          "type": "address"
        },
        {
          "internalType": "string",
          "name": "projectName",
          "type": "string"
        },
        {
          "internalType": "enum ProjectRaffle.RaffleState",
          "name": "state",
          "type": "uint8"
        },
        {
          "internalType": "uint256",
          "name": "totalTickets",
          "type": "uint256"
        },
        {
          "internalType": "uint256",
          "name": "participantCount",
          "type": "uint256"
        }
      ],
      "stateMutability": "view",
      "type": "function"
    },
    {
      "inputs": [
        {
          "internalType": "address",
          "name": "",
          "type": "address"
        }
      ],
      "name": "isRaffle",
      "outputs": [
        {
          "internalType": "bool",
          "name": "",
          "type": "bool"
        }
      ],
      "stateMutability": "view",
      "type": "function"
    },
    {
      "inputs": [],
      "name": "owner",
      "outputs": [
        {
          "internalType": "address",
          "name": "",
          "type": "address"
        }
      ],
      "stateMutability": "view",
      "type": "function"
    },
    {
      "inputs": [
        {
          "internalType": "uint256",
          "name": "",
          "type": "uint256"
        }
      ],
      "name": "raffles",
      "outputs": [
        {
          "internalType": "contract ProjectRaffle",
          "name": "",
          "type": "address"
        }
      ],
      "stateMutability": "view",
      "type": "function"
    },
    {
      "inputs": [],
      "name": "renounceOwnership",
      "outputs": [],
      "stateMutability": "nonpayable",
      "type": "function"
    },
    {
      "inputs": [
        {
          "internalType": "address",
          "name": "newOwner",
          "type": "address"
        }
      ],
      "name": "transferOwnership",
      "outputs": [],
      "stateMutability": "nonpayable",
      "type": "function"
    },
    {
      "inputs": [
        {
          "internalType": "address",
          "name": "_entropyAddress",
          "type": "address"
        }
      ],
      "name": "updateEntropyConfig",
      "outputs": [],
      "stateMutability": "nonpayable",
      "type": "function"
    }
  ],
  "bytecode": "0x608060405234801561000f575f5ffd5b5060405161369c38038061369c83398101604081905261002e9161017d565b61003733610113565b6001600160a01b0382166100925760405162461bcd60e51b815260206004820152601760248201527f496e76616c696420456e74726f7079206164647265737300000000000000000060448201526064015b60405180910390fd5b6001600160a01b0381166100e85760405162461bcd60e51b815260206004820152601560248201527f496e76616c6964206f776e6572206164647265737300000000000000000000006044820152606401610089565b600380546001600160a01b0319166001600160a01b03841617905561010c81610113565b50506101ae565b5f80546001600160a01b038381166001600160a01b0319831681178455604051919092169283917f8be0079c531659141344cd1fd0a4f28419497f9722a3daafe3b4186f6b6457e09190a35050565b80516001600160a01b0381168114610178575f5ffd5b919050565b5f5f6040838503121561018e575f5ffd5b61019783610162565b91506101a560208401610162565b90509250929050565b6134e1806101bb5f395ff3fe608060405234801561000f575f5ffd5b50600436106100cb575f3560e01c8063715018a611610088578063933eea6b11610063578063933eea6b146101905780639b00e10a146101a5578063ba7aac18146101d7578063f2fde38b146101ea575f5ffd5b8063715018a61461016357806375f4a7e11461016d5780638da5cb5b14610180575f5ffd5b80631791c75e146100cf5780631d8c6086146100ff57806327d7e46d1461011157806334fbc9a1146101355780634bb7b5991461013d5780635d4bc0ce14610150575b5f5ffd5b6100e26100dd366004610b31565b6101fd565b6040516001600160a01b0390911681526020015b60405180910390f35b6001545b6040519081526020016100f6565b61012461011f366004610bb6565b610490565b6040516100f6959493929190610bfb565b610103603281565b6003546100e2906001600160a01b031681565b6100e261015e366004610bb6565b610695565b61016b6106bd565b005b61016b61017b366004610c58565b6106d0565b5f546001600160a01b03166100e2565b610198610782565b6040516100f69190610c78565b6101c76101b3366004610c58565b60026020525f908152604090205460ff1681565b60405190151581526020016100f6565b6101986101e5366004610bb6565b610840565b61016b6101f8366004610c58565b61092a565b5f5f86511161024a5760405162461bcd60e51b81526020600482015260146024820152734e616d652063616e6e6f7420626520656d70747960601b60448201526064015b60405180910390fd5b612710610258603286610cd7565b1061029c5760405162461bcd60e51b81526020600482015260146024820152730a0cae4c6cadce8c2cecae640e8dede40d0d2ced60631b6044820152606401610241565b5f84116102eb5760405162461bcd60e51b815260206004820152601e60248201527f50726f6a6563742070657263656e74616765206d757374206265203e203000006044820152606401610241565b6001600160a01b0383166103415760405162461bcd60e51b815260206004820152601760248201527f496e76616c69642070726f6a65637420616464726573730000000000000000006044820152606401610241565b5f82116103875760405162461bcd60e51b815260206004820152601460248201527304475726174696f6e206d757374206265203e20360641b6044820152606401610241565b6003545f908790879087906001600160a01b0316336103ad5f546001600160a01b031690565b89896040516103bb90610a4b565b6103cc989796959493929190610cf0565b604051809103905ff0801580156103e5573d5f5f3e3d5ffd5b506001805480820182557fb10e2d527612073b26eecdfd717e6a320cf44b4afac2b0732d9fcbe2b7fa0cf60180546001600160a01b0319166001600160a01b0384169081179091555f8181526002602052604090819020805460ff1916909317909255905191925033917f6d696f994c5f7df411de3a33673b5d896467edcd22f2703a91270553c0b8418f9061047e908b908a90610d52565b60405180910390a39695505050505050565b5f60605f5f5f60018054905086106104da5760405162461bcd60e51b815260206004820152600d60248201526c092dcecc2d8d2c840d2dcc8caf609b1b6044820152606401610241565b5f600187815481106104ee576104ee610d73565b5f91825260208220015460408051629a33e360e81b815290516001600160a01b0390921698508893508392639a33e300926004808401938290030181865afa15801561053c573d5f5f3e3d5ffd5b505050506040513d5f823e601f3d908101601f191682016040526105639190810190610d87565b9450806001600160a01b031663c19d93fb6040518163ffffffff1660e01b8152600401602060405180830381865afa1580156105a1573d5f5f3e3d5ffd5b505050506040513d601f19601f820116820180604052508101906105c59190610dfc565b9350806001600160a01b031663dd11247e6040518163ffffffff1660e01b8152600401602060405180830381865afa158015610603573d5f5f3e3d5ffd5b505050506040513d601f19601f820116820180604052508101906106279190610e1a565b9250806001600160a01b031663cabfaa186040518163ffffffff1660e01b8152600401602060405180830381865afa158015610665573d5f5f3e3d5ffd5b505050506040513d601f19601f820116820180604052508101906106899190610e1a565b91505091939590929450565b600181815481106106a4575f80fd5b5f918252602090912001546001600160a01b0316905081565b6106c56109a3565b6106ce5f6109fc565b565b6106d86109a3565b6001600160a01b03811661072e5760405162461bcd60e51b815260206004820152601760248201527f496e76616c696420456e74726f707920616464726573730000000000000000006044820152606401610241565b600380546001600160a01b0319166001600160a01b0383169081179091556040519081527f5a15e0b00d20358d20dcbb3ccb45b6aaa793cd89cd91d6ddc9b44c0655a0fe5d9060200160405180910390a150565b6001546060905f9067ffffffffffffffff8111156107a2576107a2610a58565b6040519080825280602002602001820160405280156107cb578160200160208202803683370190505b5090505f5b60015481101561083a57600181815481106107ed576107ed610d73565b905f5260205f20015f9054906101000a90046001600160a01b031682828151811061081a5761081a610d73565b6001600160a01b03909216602092830291909101909101526001016107d0565b50919050565b6001546060905f9083116108545782610858565b6001545b90505f8167ffffffffffffffff81111561087457610874610a58565b60405190808252806020026020018201604052801561089d578160200160208202803683370190505b5090505f5b82811015610922576001805482906108bb908390610e31565b6108c59190610e31565b815481106108d5576108d5610d73565b905f5260205f20015f9054906101000a90046001600160a01b031682828151811061090257610902610d73565b6001600160a01b03909216602092830291909101909101526001016108a2565b509392505050565b6109326109a3565b6001600160a01b0381166109975760405162461bcd60e51b815260206004820152602660248201527f4f776e61626c653a206e6577206f776e657220697320746865207a65726f206160448201526564647265737360d01b6064820152608401610241565b6109a0816109fc565b50565b5f546001600160a01b031633146106ce5760405162461bcd60e51b815260206004820181905260248201527f4f776e61626c653a2063616c6c6572206973206e6f7420746865206f776e65726044820152606401610241565b5f80546001600160a01b038381166001600160a01b0319831681178455604051919092169283917f8be0079c531659141344cd1fd0a4f28419497f9722a3daafe3b4186f6b6457e09190a35050565b61266780610e4583390190565b634e487b7160e01b5f52604160045260245ffd5b604051601f8201601f1916810167ffffffffffffffff81118282101715610a9557610a95610a58565b604052919050565b5f67ffffffffffffffff821115610ab657610ab6610a58565b50601f01601f191660200190565b5f82601f830112610ad3575f5ffd5b8135610ae6610ae182610a9d565b610a6c565b818152846020838601011115610afa575f5ffd5b816020850160208301375f918101602001919091529392505050565b80356001600160a01b0381168114610b2c575f5ffd5b919050565b5f5f5f5f5f60a08688031215610b45575f5ffd5b853567ffffffffffffffff811115610b5b575f5ffd5b610b6788828901610ac4565b955050602086013567ffffffffffffffff811115610b83575f5ffd5b610b8f88828901610ac4565b94505060408601359250610ba560608701610b16565b949793965091946080013592915050565b5f60208284031215610bc6575f5ffd5b5035919050565b5f81518084528060208401602086015e5f602082860101526020601f19601f83011685010191505092915050565b6001600160a01b038616815260a0602082018190525f90610c1e90830187610bcd565b905060038510610c3c57634e487b7160e01b5f52602160045260245ffd5b8460408301528360608301528260808301529695505050505050565b5f60208284031215610c68575f5ffd5b610c7182610b16565b9392505050565b602080825282518282018190525f918401906040840190835b81811015610cb85783516001600160a01b0316835260209384019390920191600101610c91565b509095945050505050565b634e487b7160e01b5f52601160045260245ffd5b80820180821115610cea57610cea610cc3565b92915050565b61010081525f610d0461010083018b610bcd565b8281036020840152610d16818b610bcd565b604084019990995250506001600160a01b039586166060820152938516608085015291841660a084015290921660c082015260e0015292915050565b604081525f610d646040830185610bcd565b90508260208301529392505050565b634e487b7160e01b5f52603260045260245ffd5b5f60208284031215610d97575f5ffd5b815167ffffffffffffffff811115610dad575f5ffd5b8201601f81018413610dbd575f5ffd5b8051610dcb610ae182610a9d565b818152856020838501011115610ddf575f5ffd5b8160208401602083015e5f91810160200191909152949350505050565b5f60208284031215610e0c575f5ffd5b815160038110610c71575f5ffd5b5f60208284031215610e2a575f5ffd5b5051919050565b81810381811115610cea57610cea610cc356fe60e060405234801561000f575f5ffd5b5060405161266738038061266783398101604081905261002e9161051e565b6100373361040a565b6001805560405161004790610459565b604051809103905ff080158015610060573d5f5f3e3d5ffd5b506001600160a01b0316608052856100bf5760405162461bcd60e51b815260206004820152601e60248201527f50726f6a6563742070657263656e74616765206d757374206265203e2030000060448201526064015b60405180910390fd5b6127106100cd6032886105da565b1061011a5760405162461bcd60e51b815260206004820152601460248201527f50657263656e746167657320746f6f206869676800000000000000000000000060448201526064016100b6565b6001600160a01b0385166101705760405162461bcd60e51b815260206004820152601760248201527f496e76616c696420456e74726f7079206164647265737300000000000000000060448201526064016100b6565b6001600160a01b0382166101c65760405162461bcd60e51b815260206004820152601760248201527f496e76616c69642070726f6a656374206164647265737300000000000000000060448201526064016100b6565b6001600160a01b03831661021c5760405162461bcd60e51b815260206004820152601560248201527f496e76616c69642061646d696e2061646472657373000000000000000000000060448201526064016100b6565b5f811161026b5760405162461bcd60e51b815260206004820152601460248201527f4475726174696f6e206d757374206265203e203000000000000000000000000060448201526064016100b6565b6001600160a01b0384166102c15760405162461bcd60e51b815260206004820152601560248201527f496e76616c6964206f776e65722061646472657373000000000000000000000060448201526064016100b6565b60026102cd8982610683565b5060036102da8882610683565b506004868155600b80546001600160a01b038089166001600160a01b0319928316811790935560098054878316908416179055600a80549188169190921617905560a08390524260c052604080516320bba64360e21b8152905191926382ee990c9282820192602092908290030181865afa15801561035b573d5f5f3e3d5ffd5b505050506040513d601f19601f8201168201806040525081019061037f919061073d565b600c80546001600160a01b0319166001600160a01b039290921691821790556103ea5760405162461bcd60e51b815260206004820152601d60248201527f4e6f2064656661756c742070726f766964657220617661696c61626c6500000060448201526064016100b6565b6005805460ff191690556103fd8461040a565b505050505050505061075d565b5f80546001600160a01b038381166001600160a01b0319831681178455604051919092169283917f8be0079c531659141344cd1fd0a4f28419497f9722a3daafe3b4186f6b6457e09190a35050565b61056d806120fa83390190565b634e487b7160e01b5f52604160045260245ffd5b5f82601f830112610489575f5ffd5b81516001600160401b038111156104a2576104a2610466565b604051601f8201601f19908116603f011681016001600160401b03811182821017156104d0576104d0610466565b6040528181528382016020018510156104e7575f5ffd5b8160208501602083015e5f918101602001919091529392505050565b80516001600160a01b0381168114610519575f5ffd5b919050565b5f5f5f5f5f5f5f5f610100898b031215610536575f5ffd5b88516001600160401b0381111561054b575f5ffd5b6105578b828c0161047a565b60208b015190995090506001600160401b03811115610574575f5ffd5b6105808b828c0161047a565b60408b01519098509650610598905060608a01610503565b94506105a660808a01610503565b93506105b460a08a01610503565b92506105c260c08a01610503565b60e09990990151979a96995094979396929591945050565b808201808211156105f957634e487b7160e01b5f52601160045260245ffd5b92915050565b600181811c9082168061061357607f821691505b60208210810361063157634e487b7160e01b5f52602260045260245ffd5b50919050565b601f82111561067e57805f5260205f20601f840160051c8101602085101561065c5750805b601f840160051c820191505b8181101561067b575f8155600101610668565b50505b505050565b81516001600160401b0381111561069c5761069c610466565b6106b0816106aa84546105ff565b84610637565b6020601f8211600181146106e2575f83156106cb5750848201515b5f19600385901b1c1916600184901b17845561067b565b5f84815260208120601f198516915b8281101561071157878501518255602094850194600190920191016106f1565b508482101561072e57868401515f19600387901b60f8161c191681555b50505050600190811b01905550565b5f6020828403121561074d575f5ffd5b61075682610503565b9392505050565b60805160a05160c05161192d6107cd5f395f818161031d015281816106fb015281816109f6015281816110e2015261130a01525f818161049b015281816106da015281816109d5015281816110c101526112e901525f8181610c210152818161136f01526115b0015261192d5ff3fe6080604052600436106101f1575f3560e01c8063755f047b11610108578063cd03e0ed1161009d578063dfbf53ae1161006d578063dfbf53ae14610566578063e1f1c4a714610585578063e2982c211461059a578063e788b579146105b9578063f2fde38b146105f9575f5ffd5b8063cd03e0ed146104ff578063cdcd7fb51461051e578063dac6270d1461053d578063dd11247e14610551575f5ffd5b8063b2f8846b116100d8578063b2f8846b1461048a578063c19d93fb146104bd578063c8199826146104e3578063cabfaa18146104eb575f5ffd5b8063755f047b1461041a5780637cb4a0391461043b5780638da5cb5b1461045a5780639a33e30014610476575f5ffd5b80633a6a4d2e1161018957806347ce07cc1161015957806347ce07cc1461038b5780635404bbf7146103aa5780635bf414ac146103c75780636f95b3f3146103e6578063715018a614610406575f5ffd5b80633a6a4d2e146102f85780633be539ee1461030c5780633cf96af11461033f5780633de5f87b14610376575f5ffd5b806324185135116101c4578063241851351461026857806331b3eb941461028757806334fbc9a1146102a657806335c1d349146102ba575f5ffd5b806312b58349146101f55780631af2a065146102165780631b4850b81461022f57806322f3e2d414610244575b5f5ffd5b348015610200575f5ffd5b50475b6040519081526020015b60405180910390f35b348015610221575f5ffd5b50610203655af3107a400081565b61024261023d3660046116b6565b610618565b005b34801561024f575f5ffd5b506102586109af565b604051901515815260200161020d565b348015610273575f5ffd5b506102426102823660046116f6565b610a22565b348015610292575f5ffd5b506102426102a1366004611734565b610c02565b3480156102b1575f5ffd5b50610203603281565b3480156102c5575f5ffd5b506102d96102d43660046116b6565b610c7b565b604080516001600160a01b03909316835260208301919091520161020d565b348015610303575f5ffd5b50610242610cb1565b348015610317575f5ffd5b506102037f000000000000000000000000000000000000000000000000000000000000000081565b34801561034a575f5ffd5b5060095461035e906001600160a01b031681565b6040516001600160a01b03909116815260200161020d565b348015610381575f5ffd5b5061020360045481565b348015610396575f5ffd5b50600b5461035e906001600160a01b031681565b3480156103b5575f5ffd5b50600b546001600160a01b031661035e565b3480156103d2575f5ffd5b50600c5461035e906001600160a01b031681565b3480156103f1575f5ffd5b5060085461025890600160a01b900460ff1681565b348015610411575f5ffd5b50610242610f89565b348015610425575f5ffd5b5061042e610f9a565b60405161020d9190611756565b348015610446575f5ffd5b5061035e6104553660046116b6565b611026565b348015610465575f5ffd5b505f546001600160a01b031661035e565b348015610481575f5ffd5b5061042e611056565b348015610495575f5ffd5b506102037f000000000000000000000000000000000000000000000000000000000000000081565b3480156104c8575f5ffd5b506005546104d69060ff1681565b60405161020d919061179f565b610242611063565b3480156104f6575f5ffd5b50600654610203565b34801561050a575f5ffd5b506102d96105193660046116b6565b61128c565b348015610529575f5ffd5b50600a5461035e906001600160a01b031681565b348015610548575f5ffd5b506102036112e2565b34801561055c575f5ffd5b5061020360075481565b348015610571575f5ffd5b5060085461035e906001600160a01b031681565b348015610590575f5ffd5b5061020361271081565b3480156105a5575f5ffd5b506102036105b4366004611734565b61134e565b3480156105c4575f5ffd5b50600c546105e090600160a01b900467ffffffffffffffff1681565b60405167ffffffffffffffff909116815260200161020d565b348015610604575f5ffd5b50610242610613366004611734565b6113da565b5f546001600160a01b031633148061063a5750600a546001600160a01b031633145b61067c5760405162461bcd60e51b815260206004820152600e60248201526d139bdd08185d5d1a1bdc9a5e995960921b60448201526064015b60405180910390fd5b5f60055460ff1660028111156106945761069461178b565b146106d55760405162461bcd60e51b8152602060048201526011602482015270526166666c65206e6f742061637469766560781b6044820152606401610673565b61071f7f00000000000000000000000000000000000000000000000000000000000000007f00000000000000000000000000000000000000000000000000000000000000006117d9565b4210156107645760405162461bcd60e51b8152602060048201526013602482015272526166666c65207374696c6c2061637469766560681b6044820152606401610673565b5f600754116107a75760405162461bcd60e51b815260206004820152600f60248201526e139bc81d1a58dad95d1cc81cdbdb19608a1b6044820152606401610673565b6006546107c65760405162461bcd60e51b8152600401610673906117ec565b6005805460ff19166001179055600b54600c54604051631711922960e31b81526001600160a01b0391821660048201525f92919091169063b88c914890602401602060405180830381865afa158015610821573d5f5f3e3d5ffd5b505050506040513d601f19601f820116820180604052508101906108459190611815565b90508034101561088a5760405162461bcd60e51b815260206004820152601060248201526f496e73756666696369656e742066656560801b6044820152606401610673565b600b54600c546040516393cbf21760e01b81526001600160a01b03918216600482015260248101859052600160448201529116906393cbf21790839060640160206040518083038185885af11580156108e5573d5f5f3e3d5ffd5b50505050506040513d601f19601f8201168201806040525081019061090a919061182c565b600c805467ffffffffffffffff60a01b1916600160a01b67ffffffffffffffff93841681029190911791829055604051910490911681527f949fef0835a03df94e0d3eae0603cc850eb83a186f01982624772655d60035949060200160405180910390a1803411156109ab57336108fc6109848334611847565b6040518115909202915f818181858888f193505050501580156109a9573d5f5f3e3d5ffd5b505b5050565b5f8060055460ff1660028111156109c8576109c861178b565b148015610a1d5750610a1a7f00000000000000000000000000000000000000000000000000000000000000007f00000000000000000000000000000000000000000000000000000000000000006117d9565b42105b905090565b600b546001600160a01b03163314610a745760405162461bcd60e51b815260206004820152601560248201527413db9b1e48195b9d1c9bdc1e4818dbdb9d1c9858dd605a1b6044820152606401610673565b600160055460ff166002811115610a8d57610a8d61178b565b14610ad25760405162461bcd60e51b8152602060048201526015602482015274115b9d1c9bdc1e481b9bdd081c995c5d595cdd1959605a1b6044820152606401610673565b600c5467ffffffffffffffff848116600160a01b9092041614610b375760405162461bcd60e51b815260206004820152601760248201527f496e76616c69642073657175656e6365206e756d6265720000000000000000006044820152606401610673565b600c546001600160a01b03838116911614610b875760405162461bcd60e51b815260206004820152601060248201526f24b73b30b634b210383937bb34b232b960811b6044820152606401610673565b610b9081611453565b600880546001600160a01b03929092166001600160a01b0319909216821790556005805460ff191660021790556007547f0d23c526a9c7ade8c767dc7a85c10045f77a93224c72135817e2048aca01c2c190610bec908461186e565b60405190815260200160405180910390a2505050565b6040516351cff8d960e01b81526001600160a01b0382811660048301527f000000000000000000000000000000000000000000000000000000000000000016906351cff8d9906024015f604051808303815f87803b158015610c62575f5ffd5b505af1158015610c74573d5f5f3e3d5ffd5b5050505050565b60068181548110610c8a575f80fd5b5f918252602090912060029091020180546001909101546001600160a01b03909116915082565b5f546001600160a01b0316331480610cd35750600a546001600160a01b031633145b610d105760405162461bcd60e51b815260206004820152600e60248201526d139bdd08185d5d1a1bdc9a5e995960921b6044820152606401610673565b610d18611538565b600260055460ff166002811115610d3157610d3161178b565b14610d725760405162461bcd60e51b8152602060048201526011602482015270111c985dc81b9bdd08195e1958dd5d1959607a1b6044820152606401610673565b600854600160a01b900460ff1615610dcc5760405162461bcd60e51b815260206004820152601960248201527f46756e647320616c7265616479206469737472696275746564000000000000006044820152606401610673565b6008546001600160a01b0316610e195760405162461bcd60e51b8152602060048201526012602482015271139bc81dda5b9b995c881cd95b1958dd195960721b6044820152606401610673565b6009546001600160a01b0316610e715760405162461bcd60e51b815260206004820152601760248201527f496e76616c69642070726f6a65637420616464726573730000000000000000006044820152606401610673565b6008805460ff60a01b1916600160a01b179055475f612710610e94603284611881565b610e9e9190611898565b90505f610eab8284611847565b90505f61271060045483610ebf9190611881565b610ec99190611898565b90505f610ed68284611847565b600954909150610eef906001600160a01b031683611591565b600a54610f05906001600160a01b031685611591565b600854610f1b906001600160a01b031682611591565b600854600a5460095460408051868152602081018990529081018590526001600160a01b039384169392831692909116907f4a88bd679da4aaee6664a8e505eb8eaa53f983a1c99740536e734e6e31dc08d89060600160405180910390a45050505050610f8760018055565b565b610f9161160e565b610f875f611667565b60038054610fa7906118ab565b80601f0160208091040260200160405190810160405280929190818152602001828054610fd3906118ab565b801561101e5780601f10610ff55761010080835404028352916020019161101e565b820191905f5260205f20905b81548152906001019060200180831161100157829003601f168201915b505050505081565b6006545f906110475760405162461bcd60e51b8152600401610673906117ec565b61105082611453565b92915050565b60028054610fa7906118ab565b5f60055460ff16600281111561107b5761107b61178b565b146110bc5760405162461bcd60e51b8152602060048201526011602482015270526166666c65206e6f742061637469766560781b6044820152606401610673565b6111067f00000000000000000000000000000000000000000000000000000000000000007f00000000000000000000000000000000000000000000000000000000000000006117d9565b42106111435760405162461bcd60e51b815260206004820152600c60248201526b149859999b1948195b99195960a21b6044820152606401610673565b655af3107a40003410156111a45760405162461bcd60e51b815260206004820152602260248201527f4d696e696d756d207469636b657420707269636520697320302e3030303120456044820152610a8960f31b6064820152608401610673565b3460075f8282546111b591906117d9565b909155505060408051808201825233808252600780546020808501918252600680546001810182555f9190915294517ff652222313e28459528d920b65115c16c04f3efc82aaedc97be59f3f377c0d3f600290960295860180546001600160a01b0319166001600160a01b0390921691909117905590517ff652222313e28459528d920b65115c16c04f3efc82aaedc97be59f3f377c0d409094019390935554835134815292830152917f2a91574e12ad96234e84923e146b0946ecfb871cd8d5534dc1fdcbe87a7c01b3910160405180910390a2565b5f5f5f600684815481106112a2576112a26118e3565b5f9182526020918290206040805180820190915260029092020180546001600160a01b031680835260019091015491909201819052909590945092505050565b5f8061132e7f00000000000000000000000000000000000000000000000000000000000000007f00000000000000000000000000000000000000000000000000000000000000006117d9565b905080421061133e575f91505090565b6113484282611847565b91505090565b6040516371d4ed8d60e11b81526001600160a01b0382811660048301525f917f00000000000000000000000000000000000000000000000000000000000000009091169063e3a9db1a90602401602060405180830381865afa1580156113b6573d5f5f3e3d5ffd5b505050506040513d601f19601f820116820180604052508101906110509190611815565b6113e261160e565b6001600160a01b0381166114475760405162461bcd60e51b815260206004820152602660248201527f4f776e61626c653a206e6577206f776e657220697320746865207a65726f206160448201526564647265737360d01b6064820152608401610673565b61145081611667565b50565b6006545f906114745760405162461bcd60e51b8152600401610673906117ec565b6007545f90611483908461186e565b6006549091505f90819061149990600190611847565b90505b80821015611503575f60026114b183856117d9565b6114bb9190611898565b905083600682815481106114d1576114d16118e3565b905f5260205f2090600202016001015411156114ef578091506114fd565b6114fa8160016117d9565b92505b5061149c565b60068281548110611516576115166118e3565b5f9182526020909120600290910201546001600160a01b031695945050505050565b60026001540361158a5760405162461bcd60e51b815260206004820152601f60248201527f5265656e7472616e637947756172643a207265656e7472616e742063616c6c006044820152606401610673565b6002600155565b60405163f340fa0160e01b81526001600160a01b0383811660048301527f0000000000000000000000000000000000000000000000000000000000000000169063f340fa019083906024015f604051808303818588803b1580156115f3575f5ffd5b505af1158015611605573d5f5f3e3d5ffd5b50505050505050565b5f546001600160a01b03163314610f875760405162461bcd60e51b815260206004820181905260248201527f4f776e61626c653a2063616c6c6572206973206e6f7420746865206f776e65726044820152606401610673565b5f80546001600160a01b038381166001600160a01b0319831681178455604051919092169283917f8be0079c531659141344cd1fd0a4f28419497f9722a3daafe3b4186f6b6457e09190a35050565b5f602082840312156116c6575f5ffd5b5035919050565b67ffffffffffffffff81168114611450575f5ffd5b6001600160a01b0381168114611450575f5ffd5b5f5f5f60608486031215611708575f5ffd5b8335611713816116cd565b92506020840135611723816116e2565b929592945050506040919091013590565b5f60208284031215611744575f5ffd5b813561174f816116e2565b9392505050565b602081525f82518060208401528060208501604085015e5f604082850101526040601f19601f83011684010191505092915050565b634e487b7160e01b5f52602160045260245ffd5b60208101600383106117bf57634e487b7160e01b5f52602160045260245ffd5b91905290565b634e487b7160e01b5f52601160045260245ffd5b80820180821115611050576110506117c5565b6020808252600f908201526e4e6f207061727469636970616e747360881b604082015260600190565b5f60208284031215611825575f5ffd5b5051919050565b5f6020828403121561183c575f5ffd5b815161174f816116cd565b81810381811115611050576110506117c5565b634e487b7160e01b5f52601260045260245ffd5b5f8261187c5761187c61185a565b500690565b8082028115828204841417611050576110506117c5565b5f826118a6576118a661185a565b500490565b600181811c908216806118bf57607f821691505b6020821081036118dd57634e487b7160e01b5f52602260045260245ffd5b50919050565b634e487b7160e01b5f52603260045260245ffdfea264697066735822122061dbb840d09dc3d659b89dae8ff938f700cc723152eff4a505be9ffee18f70e964736f6c634300081c00336080604052348015600e575f5ffd5b50601633601a565b6069565b5f80546001600160a01b038381166001600160a01b0319831681178455604051919092169283917f8be0079c531659141344cd1fd0a4f28419497f9722a3daafe3b4186f6b6457e09190a35050565b6104f7806100765f395ff3fe608060405260043610610054575f3560e01c806351cff8d914610058578063715018a6146100795780638da5cb5b1461008d578063e3a9db1a146100b8578063f2fde38b146100fa578063f340fa0114610119575b5f5ffd5b348015610063575f5ffd5b5061007761007236600461047a565b61012c565b005b348015610084575f5ffd5b506100776101a2565b348015610098575f5ffd5b505f546040516001600160a01b0390911681526020015b60405180910390f35b3480156100c3575f5ffd5b506100ec6100d236600461047a565b6001600160a01b03165f9081526001602052604090205490565b6040519081526020016100af565b348015610105575f5ffd5b5061007761011436600461047a565b6101b5565b61007761012736600461047a565b610233565b6101346102a4565b6001600160a01b0381165f81815260016020526040812080549190559061015b90826102fd565b816001600160a01b03167f7084f5476618d8e60b11ef0d7d3f06914655adb8793e28ff7f018d4c76d505d58260405161019691815260200190565b60405180910390a25050565b6101aa6102a4565b6101b35f610417565b565b6101bd6102a4565b6001600160a01b0381166102275760405162461bcd60e51b815260206004820152602660248201527f4f776e61626c653a206e6577206f776e657220697320746865207a65726f206160448201526564647265737360d01b60648201526084015b60405180910390fd5b61023081610417565b50565b61023b6102a4565b6001600160a01b0381165f9081526001602052604081208054349283929161026490849061049c565b90915550506040518181526001600160a01b038316907f2da466a7b24304f47e87fa2e1e5a81b9831ce54fec19055ce277ca2f39ba42c490602001610196565b5f546001600160a01b031633146101b35760405162461bcd60e51b815260206004820181905260248201527f4f776e61626c653a2063616c6c6572206973206e6f7420746865206f776e6572604482015260640161021e565b8047101561034d5760405162461bcd60e51b815260206004820152601d60248201527f416464726573733a20696e73756666696369656e742062616c616e6365000000604482015260640161021e565b5f826001600160a01b0316826040515f6040518083038185875af1925050503d805f8114610396576040519150601f19603f3d011682016040523d82523d5f602084013e61039b565b606091505b50509050806104125760405162461bcd60e51b815260206004820152603a60248201527f416464726573733a20756e61626c6520746f2073656e642076616c75652c207260448201527f6563697069656e74206d61792068617665207265766572746564000000000000606482015260840161021e565b505050565b5f80546001600160a01b038381166001600160a01b0319831681178455604051919092169283917f8be0079c531659141344cd1fd0a4f28419497f9722a3daafe3b4186f6b6457e09190a35050565b6001600160a01b0381168114610230575f5ffd5b5f6020828403121561048a575f5ffd5b813561049581610466565b9392505050565b808201808211156104bb57634e487b7160e01b5f52601160045260245ffd5b9291505056fea2646970667358221220a1e6de3f83a270bd306f0a60939c3b44ca4acd0067850cf038b8408ebd38a9e164736f6c634300081c0033a2646970667358221220089524d66bd69d5cafb7e36e3cd8c7c5e6a71e6b05f163e95cbb1b2a9e10292364736f6c634300081c0033",
  "linkReferences": {},
  "deployedLinkReferences": {},
  "immutableReferences": {},
  "inputSourceName": "project/contracts/RaffleFactory.sol",
  "buildInfoId": "solc-0_8_28-3fff0f77bafb435d8d0f48f3a88553fcc0e6c6fa"
}